:100000000C946E010C949F010C949F010C949F0121
:100010000C949F010C949F010C949F010C949F01E0
:100020000C949F010C949F010C949F010C949F01D0
:100030000C949F010C949F010C949F010C949F01C0
:100040000C949F010C949F010C949F010C949F01B0
:100050000C949F010C949F010C949F010C949603A7
:100060000C949F010C940A040C94E0030C949F01DF
:100070000C949F010C949F010C949F010C949F0180
:100080000C949F010C949F010C949F010C949F0170
:100090000C949F010C949F010C949F010C949F0160
:1000A0000C949F010C949F010C949F010C949F0150
:1000B0000C949F010C949F010C949F010C949F0140
:1000C0000C949F010C949F010C949F010C949F0130
:1000D0000C949F010C949F010C949F010C949F0120
:1000E0000C949F015F056405690573057D05F605A0
:1000F00087058F059705A105AB05B505C405CE0598
:10010000F605D805E205EC051D0620060F061306C8
:1001100017065706240628062E06320636063C0623
:100120004006440657064A064E0652060C94B5058C
:100130000C9452060C9428060C9473050C941D061E
:100140000C94E2050C942E060C943F020C94AB0622
:100150000C9444060C948F050C9464050C94E602F0
:100160000C94D8050C94A1050C9430020C946905EC
:100170000C9402020C94EC050C947D050C94200662
:100180000C945F050C94F6050C9440060C944E06F6
:100190000C9497050C9417060C9453020C94C40508
:1001A0000C94AB050C9487050C9413060C949902DF
:1001B0000C940F060C944A060C9432060C945706C5
:1001C0000C94CE050C9436060C943C060C94240634
:1001D0000C94610200000A0B02090C0D0E080703C3
:1001E000040100000000000000000000000000000A
:1001F00000000000000000000000000000000000FF
:1002000012111000000000000000000000000000BB
:100210000000000000000000000000002200250097
:1002200028002B002E0031003400020100000501DF
:1002300008010B0100002100240027002A002D00E6
:100240003000330001010000040107010A01050527
:100250000505070508080808020202020A0A08083C
:10026000040404040101010101010101030303036A
:1002700003030303040707070C0C0C0C0C0C0C0CF9
:100280000202020206060606060606060B0B0B0B0A
:100290000B0B0B0B0102102020080810204010202F
:1002A000408002010201080402010102040810203A
:1002B0004080804020100804020180040201804038
:1002C00020100804020108040201010204081020A1
:1002D00040800102040810204080AB0611241FBE9C
:1002E000CFEFD1E2DEBFCDBF00E00CBF12E0A0E057
:1002F000B2E0E2E1FEE000E00BBF02C007900D9229
:10030000AA33B107D9F722E0AAE3B2E001C01D92F7
:10031000A63EB207E1F711E0CEE6D1E000E006C06C
:1003200021970109802FFE010E94FA06CD36D107E0
:1003300080E00807A9F70E9440040C9407070C947A
:100340000000CF93DF9390E0FC01EC56FD4F249129
:10035000FC01E25BFD4F8491882361F190E0880FFE
:10036000991FFC01EC5CFD4FC591D491FC01E65E48
:10037000FD4FA591B491611109C09FB7F894888190
:10038000209582238883EC912E230BC0623061F488
:100390009FB7F8948881322F309583238883EC911E
:1003A0002E2B2C939FBF06C08FB7F894E8812E2B7D
:1003B00028838FBFDF91CF9108953FB7F894809144
:1003C000450290914602A0914702B091480226B59D
:1003D000A89B05C02F3F19F00196A11DB11D3FBF7D
:1003E000BA2FA92F982F8827820F911DA11DB11D0B
:1003F000BC01CD0142E0660F771F881F991F4A9507
:10040000D1F70895CF92DF92EF92FF920F931F934F
:10041000CF93DF936C017A018B01C0E0D0E0CE1561
:10042000DF0581F0D8016D918D01D601ED91FC9130
:100430000190F081E02DC6011995892B11F02196CC
:10044000EECF7E01C701DF91CF911F910F91FF90F9
:10045000EF90DF90CF900895089580E090E00895A8
:10046000FC01538D448D252F30E0842F90E0821BBA
:10047000930B541710F0CF96089501970895FC013F
:10048000918D828D981761F0828DDF01A80FB11DCB
:100490005D968C91928D9F5F9F73928F90E00895EF
:1004A0008FEF9FEF0895FC01918D828D981731F0A9
:1004B000828DE80FF11D858D90E008958FEF9FEFFD
:1004C0000895FC01918D228D892F90E0805C9F4FD3
:1004D000821B91098F739927089589E492E00E9405
:1004E000610221E0892B09F420E0822F0895FC01AC
:1004F000848DDF01A80FB11DA35ABF4F2C91848DAD
:1005000090E001968F739927848FA689B7892C93E1
:10051000A089B1898C91837080648C93938D848D34
:10052000981306C00288F389E02D80818F7D808337
:100530000895EF92FF920F931F93CF93DF93EC01F7
:1005400081E0888F9B8D8C8D981305C0E889F9898F
:10055000808185FD26C0F62E0B8D10E00F5F1F4FAA
:100560000F731127E02E8C8DE8120CC00FB607FC1C
:10057000FACFE889F989808185FFF5CFCE010E9405
:100580007702F1CF8B8DFE01E80FF11DE35AFF4F8B
:10059000F0829FB7F8940B8FEA89FB898081806293
:1005A0000AC09FB7F894EE89FF896083E889F989CA
:1005B00080818370806480839FBF81E090E0DF91C1
:1005C000CF911F910F91FF90EF900895CF93DF93FC
:1005D000EC01888D8823C9F0EA89FB89808185FD3B
:1005E00005C0A889B9898C9186FD0FC00FB607FC9C
:1005F000F5CF808185FFF2CFA889B9898C9185FFDD
:10060000EDCFCE010E947702E7CFDF91CF91089521
:1006100080E090E0892B21F00E946D02811125C0BD
:1006200080E090E0892B41F080E090E0892B21F080
:100630000E94000081111CC080E090E0892B41F0F5
:1006400080E090E0892B21F00E940000811113C00E
:1006500080E090E0892BA1F080E090E0892B81F090
:100660000E94000081110AC008950E940000D8CFA6
:100670000E940000E1CF0E940000EACF0C9400002D
:100680000895009769F0FC0101900020E9F7319787
:10069000AF01481B590BBC0189E492E00C940202A3
:1006A00080E090E008958F929F92AF92BF920F9357
:1006B0001F93CF93DF93CDB7DEB7A1970FB6F89412
:1006C000DEBF0FBECDBF19A2423008F44AE08E0152
:1006D0000F5D1F4F842E912CA12CB12CA5019401EC
:1006E0000E94D806E62FB901CA0101501109EA306B
:1006F00014F4E05D01C0E95CD801EC93232B242BBA
:10070000252B61F7C8010E944103A1960FB6F8940A
:10071000DEBF0FBECDBFDF91CF911F910F91BF9074
:10072000AF909F908F9008950E9402071F920F92A2
:100730000FB60F9211242F933F938F939F93AF93F4
:10074000BF938091410290914202A0914302B091E7
:1007500044023091400223E0230F2D3720F401960C
:10076000A11DB11D05C026E8230F0296A11DB11DD4
:10077000209340028093410290934202A09343024F
:10078000B09344028091450290914602A0914702A5
:10079000B09148020196A11DB11D8093450290932E
:1007A0004602A0934702B0934802BF91AF919F9138
:1007B0008F913F912F910F900FBE0F901F90189522
:1007C0001F920F920FB60F9211240BB60F922F9318
:1007D0003F934F935F936F937F938F939F93AF93C9
:1007E000BF93EF93FF9389E492E00E947702FF9119
:1007F000EF91BF91AF919F918F917F916F915F9199
:100800004F913F912F910F900BBE0F900FBE0F9005
:100810001F9018951F920F920FB60F9211240BB6CE
:100820000F922F938F939F93EF93FF93E091590231
:10083000F0915A028081E0915F02F091600282FDA6
:1008400012C09081809162028F5F8F73209163024A
:10085000821751F0E0916202F0E0E75BFD4F958F67
:100860008093620201C08081FF91EF919F918F91EF
:100870002F910F900BBE0F900FBE0F901F901895E9
:10088000789484B5826084BD84B5816084BD85B56B
:10089000826085BD85B5816085BD80916E00816077
:1008A00080936E001092810080918100826080931D
:1008B000810080918100816080938100809180001F
:1008C0008160809380008091B10084608093B1004A
:1008D0008091B00081608093B0008091910082602F
:1008E000809391008091910081608093910080912C
:1008F00090008160809390008091A100826080933D
:10090000A1008091A10081608093A1008091A0004E
:1009100081608093A00080912101826080932101F9
:10092000809121018160809321018091200181606B
:100930008093200180917A00846080937A00809176
:100940007A00826080937A0080917A00816080933F
:100950007A0080917A00806880937A001092C100BA
:10096000E0915902F0915A0282E08083E0915502B1
:10097000F09156021082E0915702F09158028FECEC
:10098000808310926102E0915D02F0915E0286E048
:100990008083E0915B02F0915C02808180618083C2
:1009A000E0915B02F0915C02808188608083E0913D
:1009B0005B02F0915C02808180688083E0915B0241
:1009C000F0915C0280818F7D808361E086E10E94EE
:1009D000A10160E081E40E94A1010AEE11E02AEA8F
:1009E000822E22E0922E34E6A32E32E0B32EC0E017
:1009F000D2E043E4342E2FB7F894809141029091D5
:100A00004202A0914302B09144022FBF80933C0266
:100A100090933D02A0933E02B0933F020E94DD01FD
:100A20002B013C0198EEC92E93E0D92EE12CF12C3C
:100A30000E94DD01DC01CB0184199509A609B709E3
:100A4000883E9340A105B10598F321E0C21AD10870
:100A5000E108F10888EE480E83E0581E611C711C05
:100A6000C114D104E104F10419F782E192E00E947B
:100A7000410384E292E00E94410360913C02709144
:100A80003D0280913E0290913F024AE00E94530352
:100A900084E292E00E94410361E086E10E94A101AC
:100AA000F801849190E0FC013197E231F10508F002
:100AB0009DC08827EE58FF4F8F4F0C94FA0684B5DF
:100AC000806884BD17BC01C184B5806284BD18BC38
:100AD000FCC080918000806880938000D093890062
:100AE000C0938800F2C08091800080628093800073
:100AF000D0938B00C0938A00E8C08091800088600A
:100B000080938000D0938D00C0938C00DEC08091D4
:100B1000B00080688093B0001092B300D6C080917E
:100B2000B00080628093B0001092B400CEC080917B
:100B30009000806880939000D0939900C0939800B3
:100B4000C4C080919000806280939000D0939B00FD
:100B5000C0939A00BAC08091900088608093900002
:100B6000D0939D00C0939C00B0C08091A00080688D
:100B70008093A0008091A0008F7B8093A000D093F1
:100B8000A900C093A800A1C08091A00080628093BA
:100B9000A000D093AB00C093AA0097C08091A000A2
:100BA00088608093A000D093AD00C093AC008DC04E
:100BB00080912001806880932001D0932901C09307
:100BC000280183C080912001806280932001D0930E
:100BD0002B01C0932A0179C0809120018860809305
:100BE0002001D0932D01C0932C016FC0F8014491D6
:100BF000F4012491F5019491992309F466C04423EA
:100C000009F455C050E0FA013197E231F10508F0DE
:100C10004EC08827EC57FF4F8F4F0C94FA068091F7
:100C200080008F7707C0809180008F7D03C0809106
:100C30008000877F809380003AC084B58F7702C0A0
:100C400084B58F7D84BD33C08091B0008F7703C0A1
:100C50008091B0008F7D8093B00029C0809190007A
:100C60008F7707C0809190008F7D03C080919000A6
:100C7000877F809390001BC08091A0008F7707C072
:100C80008091A0008F7D03C08091A000877F80931A
:100C9000A0000DC0809120018F7707C080912001B6
:100CA0008F7D03C080912001877F80932001E92FF1
:100CB000F0E0EE0FFF1FE65EFD4FA591B4919FB7E8
:100CC000F8948C91822B8C939FBF80917B008860DD
:100CD00080937B0030927C0080917A0080648093C6
:100CE0007A0080917A0086FDFCCF80917800209177
:100CF000790090E0922B90933B0280933A0287E236
:100D000092E00E94410384E292E00E944103C0907D
:100D10003A02D0903B020D2C000CEE08FF08F7FEC3
:100D20000EC06DE289E492E00E949902662777275F
:100D3000CB016C197D098E099F094AE003C04AE086
:100D4000C701B6010E94530384E292E00E9441036E
:100D50000E94080350CEE9E4F2E01382128288EE8A
:100D600093E0A0E0B0E084839583A683B78384E01A
:100D700092E09183808385EC90E09587848784EC72
:100D800090E09787868780EC90E0918B808B81EC58
:100D900090E0938B828B82EC90E0958B848B86EC39
:100DA00090E0978B868B118E128E138E148E089581
:100DB000A1E21A2EAA1BBB1BFD010DC0AA1FBB1F5F
:100DC000EE1FFF1FA217B307E407F50720F0A21BD1
:100DD000B30BE40BF50B661F771F881F991F1A943E
:100DE00069F760957095809590959B01AC01BD0168
:100DF000CF010895EE0FFF1F881F8BBF0790F6915C
:100E0000E02D199481E090E0F8940C940707F89491
:020E1000FFCF12
:100E120000000000990202023002E60261023F0273
:100E2200530274696D655061737365644D696C73C7
:100E3200203A20000D0A00616E616C6F675F526597
:0A0E4200616456616C203A20000044
:00000001FF
