:100000000C9483000C94B4000C94B4000C94B400D1
:100010000C94B4000C94B4000C94B4000C94B40090
:100020000C94B4000C94B4000C94B4000C94B40080
:100030000C94B4000C94B4000C94B4000C94B40070
:100040000C94B4000C94B4000C94B4000C94B40060
:100050000C94B4000C94B4000C94B4000C944A02B8
:100060000C94B4000C94BE020C9494020C94B40052
:100070000C94B4000C94B4000C94B4000C94B40030
:100080000C94B4000C94B4000C94B4000C94B40020
:100090000C94B4000C94B4000C94B4000C94B40010
:1000A0000C94B4000C94B4000C94B4000C94B40000
:1000B0000C94B4000C94B4000C94B4000C94B400F0
:1000C0000C94B4000C94B4000C94B4000C94B400E0
:1000D0000C94B4000C94B4000C94B4000C94B400D0
:1000E0000C94B4000C94B6000C9415010C94F3001D
:1000F0000C949A010C9439060C94E4000C940701BA
:100100000C944D01390611241FBECFEFD1E2DEBFA2
:10011000CDBF00E00CBF12E0A0E0B2E0E6EAF1E102
:1001200000E00BBF02C007900D92AE35B107D9F7C2
:1001300023E0AEE5B2E001C01D92A633B207E1F7BD
:1001400010E0C3E8D0E000E006C021970109802F4D
:10015000FE010E948806C238D10780E00807A9F78F
:100160000E94F4020C94D1080C940000CF92DF920C
:10017000EF92FF920F931F93CF93DF936C017A015D
:100180008B01C0E0D0E0CE15DF0581F0D8016D9184
:100190008D01D601ED91FC910190F081E02DC60119
:1001A0001995892B11F02196EECF7E01C701DF91C1
:1001B000CF911F910F91FF90EF90DF90CF90089516
:1001C000089580E090E00895FC01538D448D252F23
:1001D00030E0842F90E0821B930B541710F0CF96E1
:1001E000089501970895FC01918D828D981761F013
:1001F000828DDF01A80FB11D5D968C91928D9F5F5E
:100200009F73928F90E008958FEF9FEF0895FC0108
:10021000918D828D981731F0828DE80FF11D858DBB
:1002200090E008958FEF9FEF0895FC01918D228D4E
:10023000892F90E0805C9F4F821B91098F739927D3
:10024000089589E992E00E94150121E0892B09F4C3
:1002500020E0822F0895FC01848DDF01A80FB11DDD
:10026000A35ABF4F2C91848D90E001968F739927EC
:10027000848FA689B7892C93A089B1898C918370CA
:1002800080648C93938D848D981306C00288F389C3
:10029000E02D80818F7D80830895EF92FF920F93F0
:1002A0001F93CF93DF93EC0181E0888F9B8D8C8D22
:1002B000981305C0E889F989808185FD26C0F62E4E
:1002C0000B8D10E00F5F1F4F0F731127E02E8C8DE9
:1002D000E8120CC00FB607FCFACFE889F9898081D3
:1002E00085FFF5CFCE010E942B01F1CF8B8DFE0152
:1002F000E80FF11DE35AFF4FF0829FB7F8940B8F80
:10030000EA89FB89808180620AC09FB7F894EE89F0
:10031000FF896083E889F9898081837080648083A4
:100320009FBF81E090E0DF91CF911F910F91FF90EF
:10033000EF900895CF93DF93EC01888D8823C9F067
:10034000EA89FB89808185FD05C0A889B9898C91DE
:1003500086FD0FC00FB607FCF5CF808185FFF2CF79
:10036000A889B9898C9185FFEDCFCE010E942B0120
:10037000E7CFDF91CF91089580E090E0892B21F0C5
:100380000E942101811125C080E090E0892B41F07D
:1003900080E090E0892B21F00E94000081111CC0B8
:1003A00080E090E0892B41F080E090E0892B21F003
:1003B0000E940000811113C080E090E0892BA1F021
:1003C00080E090E0892B81F00E94000081110AC03A
:1003D00008950E940000D8CF0E940000E1CF0E9443
:1003E0000000EACF0C9400000895009769F0FC012A
:1003F00001900020E9F73197AF01481B590BBC0170
:1004000089E992E00C94B60080E090E008958F9224
:100410009F92AF92BF920F931F93CF93DF93CDB76D
:10042000DEB7A1970FB6F894DEBF0FBECDBF19A2FD
:10043000423008F44AE08E010F5D1F4F842E912C4C
:10044000A12CB12CA50194010E946606E62FB901EA
:10045000CA0101501109EA3014F4E05D01C0E95C01
:10046000D801EC93232B242B252B61F7C8010E9484
:10047000F501A1960FB6F894DEBF0FBECDBFDF9198
:10048000CF911F910F91BF90AF909F908F90089543
:100490000E94CC081F920F920FB60F9211242F9337
:1004A0003F938F939F93AF93BF93809195029091C9
:1004B0009602A0919702B09198023091940223E0A5
:1004C000230F2D3720F40196A11DB11D05C026E88C
:1004D000230F0296A11DB11D2093940280939502D3
:1004E00090939602A0939702B09398028091900205
:1004F00090919102A0919202B09193020196A11D58
:10050000B11D8093900290939102A0939202B093B8
:100510009302BF91AF919F918F913F912F910F9037
:100520000FBE0F901F9018951F920F920FB60F924B
:1005300011240BB60F922F933F934F935F936F93BA
:100540007F938F939F93AF93BF93EF93FF9389E92B
:1005500092E00E942B01FF91EF91BF91AF919F918B
:100560008F917F916F915F914F913F912F910F905C
:100570000BBE0F900FBE0F901F9018951F920F92F9
:100580000FB60F9211240BB60F922F938F939F9358
:10059000EF93FF93E091A902F091AA028081E0918C
:1005A000AF02F091B00282FD12C090818091B20240
:1005B0008F5F8F732091B302821751F0E091B202E6
:1005C000F0E0E756FD4F958F8093B20201C0808125
:1005D000FF91EF919F918F912F910F900BBE0F90F4
:1005E0000FBE0F901F901895CF93DF93CDB7DEB756
:1005F00066970FB6F894DEBF0FBECDBF789484B572
:10060000826084BD84B5816084BD85B5826085BD0E
:1006100085B5816085BD80916E00816080936E009C
:10062000109281008091810082608093810080918E
:10063000810081608093810080918000816080933F
:1006400080008091B10084608093B1008091B000FF
:1006500081608093B00080919100826080939100CE
:1006600080919100816080939100809190008160E1
:10067000809390008091A10082608093A10080917E
:10068000A10081608093A1008091A000816080938F
:10069000A00080912101826080932101809121013D
:1006A00081608093210180912001816080932001ED
:1006B00080917A00846080937A0080917A008260D1
:1006C00080937A0080917A00816080937A00809193
:1006D0007A00806880937A001092C100E091A902AC
:1006E000F091AA0282E08083E091A502F091A60237
:1006F0001082E091A702F091A8028FEC8083109203
:10070000B102E091AD02F091AE0286E08083E0910B
:10071000AB02F091AC02808180618083E091AB02FA
:10072000F091AC02808188608083E091AB02F0910F
:10073000AC02808180688083E091AB02F091AC02D2
:1007400080818F7D80832FB7F8948091950290915E
:100750009602A0919702B09198022FBF80938C02CD
:1007600090938D02A0938E02B0938F0240918602E7
:1007700050918702609188027091890220915E02F7
:100780002B8380915F028C83909160029D83E09126
:100790006102EE83209162022B87809163028C8735
:1007A000909164029D87E0916502EE872091660238
:1007B0002F83809167028887909168029987E091E2
:1007C0006902EA8700916A0210916B0220916C0223
:1007D0002E8B80916D028D8B80906E0290906F02B7
:1007E000A0907002B0907102909172029983E09192
:1007F0007302EA832090740230907502C0907602F2
:10080000D0907702E0907802F090790220917A02FD
:10081000298B80917B028A8B90917C029B8BE0914B
:100820007D02EC8B80918A0290918B02988B8F874E
:100830008F8598890196988B8F878131974209F42B
:10084000ACC020E030E040E850E4B8018E899D89DA
:100850000E945A089401A5010E9491064B015C0177
:1008600020E030E040EC50E46F81788589859A85FE
:100870000E945A089B01AC01C501B4010E94910677
:100880004B015C0120E030E040E850E46B857C8562
:100890008D859E850E945A089B01AC01C501B4015B
:1008A0000E94910627E93DE64CE155E30E9491063E
:1008B0004B015C012EE23FEB4FE050ECB601C7016B
:1008C0000E945A082B013C0120E73FE642EF5EE31D
:1008D00069897A898B899C890E945A089B01AC019D
:1008E000C301B2010E9491062B013C0121EA34E1CF
:1008F00041E850E469817A81C1010E945A089B0154
:10090000AC01C301B2010E9491062B013C0122EA15
:100910003BE640E550EC6B817C818D819E810E949D
:100920005A089B01AC01C301B2010E9491069B01D0
:10093000AC01C501B4010E9490069B014FE652E153
:1009400063E07BE3C98ADA8AEB8AFC8A4801AE88D5
:10095000BD88C980DA807101EB81E983EC81EA838B
:100960002D803E802B833C838D839E830F81188551
:1009700029852E8B8A858D8B9B859F83EC85E887C7
:100980002D8529878E858A8797E99B87EDE6EC87F9
:100990002CE12D8785E38E874BCF409386025093C1
:1009A000870260938802709389028B859C85AD8550
:1009B000BE858093620290936302A0936402B09319
:1009C00065028F819885A985BA8580936602909388
:1009D0006702A0936802B0936902C801AE89BD891D
:1009E00080936A0290936B02A0936C02B0936D02A5
:1009F0008B819C81AD81BE8180935E0290935F026A
:100A0000A0936002B093610289819A81D1018093A1
:100A1000720290937302A0937402B0937502C601A0
:100A2000D7018093760290937702A0937802B093D7
:100A30007902C401D50180936E0290936F02A09356
:100A40007002B093710289899A89AB89BC898093BD
:100A50007A0290937B02A0937C02B0937D02109265
:100A60008B0210928A022FB7F89480919502909190
:100A70009602A0919702B09198022FBF40918C02EC
:100A800050918D0260918E0270918F02841B950BA4
:100A9000A60BB70B8093820290938302A0938402EB
:100AA000B093850282E192E00E94F501609182029A
:100AB0007091830280918402909185024AE00E94A5
:100AC000070284E292E00E94F50160918202709137
:100AD000830280918402909185020E94A30720E006
:100AE00030E44CE156E40E94020760937E0270936A
:100AF0007F02809380029093810287E292E00E94BD
:100B0000F501C0907E02D0907F02E0908002F090CC
:100B10008102A7019601C701B6010E94C708882378
:100B200019F08AE392E01AC046015701E894B7F839
:100B30002FEF3FEF4FE75FE7C501B4010E94C70801
:100B400081110FC02FEF3FEF4FE75FE7C501B40101
:100B50000E94FD0618162CF48EE392E00E94F50127
:100B600076C02FEF3FEF4FE75FE4C701B6010E9469
:100B7000550818161CF482E492E0F0CF2FEF3FEFF7
:100B80004FE75FECC701B6010E94FD0687FDF3CF7A
:100B900020E030E0A901C701B6010E94FD0687FFF1
:100BA00009C06DE289E992E00E944D01F7FAF094E4
:100BB000F7F8F0942AE037ED43EA5BE3C701B601AA
:100BC0000E9491064B015C010E9474076B017C013D
:100BD0000E94A3079B01AC01C501B4010E949006CD
:100BE0004B015C014AE0C701B6010E9407026EE2B8
:100BF00089E992E00E944D0120E030E040E251E4BA
:100C0000C501B4010E945A084B015C010E9474079F
:100C10006B01E12CF12C4AE0C701B6010E940702EA
:100C2000C701B6010E94A3079B01AC01C501B40135
:100C30000E94900620E030E040E251E40E945A0811
:100C40000E94740780E090E04AE00E94070286E478
:100C500092E00E94F5014AE060E177E280E090E0F6
:100C60000E94070284E292E00E94F5010E94BC010A
:100C70006ACDE9E9F2E01382128288EE93E0A0E007
:100C8000B0E084839583A683B78384E092E0918368
:100C9000808385EC90E09587848784EC90E097874B
:100CA000868780EC90E0918B808B81EC90E0938B39
:100CB000828B82EC90E0958B848B86EC90E0978B16
:100CC000868B118E128E138E148E0895A1E21A2E29
:100CD000AA1BBB1BFD010DC0AA1FBB1FEE1FFF1FE0
:100CE000A217B307E407F50720F0A21BB30BE40B30
:100CF000F50B661F771F881F991F1A9469F7609577
:100D00007095809590959B01AC01BD01CF01089530
:100D1000EE0FFF1F881F8BBF0790F691E02D1994EF
:100D20005058BB27AA270E94A8060C941B080E94B3
:100D30000D0838F00E94140820F039F49F3F19F490
:100D400026F40C940A080EF4E095E7FB0C940408D2
:100D5000E92F0E942C0858F3BA176207730784071B
:100D6000950720F079F4A6F50C944E080EF4E09562
:100D70000B2EBA2FA02D0B01B90190010C01CA0155
:100D8000A0011124FF27591B99F0593F50F4503E00
:100D900068F11A16F040A22F232F342F4427585FF2
:100DA000F3CF469537952795A795F0405395C9F70A
:100DB0007EF41F16BA0B620B730B840BBAF09150C2
:100DC000A1F0FF0FBB1F661F771F881FC2F70EC061
:100DD000BA0F621F731F841F48F487957795679534
:100DE000B795F7959E3F08F0B0CF9395880F08F020
:100DF0009927EE0F9795879508950E94E00708F4CC
:100E000081E008950E9416070C941B080E941408A4
:100E100058F00E940D0840F029F45F3F29F00C942F
:100E2000040851110C944F080C940A080E942C08D5
:100E300068F39923B1F3552391F3951B550BBB2709
:100E4000AA2762177307840738F09F5F5F4F220F4E
:100E5000331F441FAA1FA9F335D00E2E3AF0E0E845
:100E600032D091505040E695001CCAF72BD0FE2F8F
:100E700029D0660F771F881FBB1F26173707480723
:100E8000AB07B0E809F0BB0B802DBF01FF279358DB
:100E90005F4F3AF09E3F510578F00C9404080C9493
:100EA0004F085F3FE4F3983ED4F3869577956795B6
:100EB000B795F7959F5FC9F7880F911D9695879510
:100EC00097F90895E1E0660F771F881FBB1F62172F
:100ED00073078407BA0720F0621B730B840BBA0BED
:100EE000EE1F88F7E09508950E94340888F09F5718
:100EF00098F0B92F9927B751B0F0E1F0660F771F3E
:100F0000881F991F1AF0BA95C9F714C0B13091F033
:100F10000E944E08B1E008950C944E08672F782F78
:100F20008827B85F39F0B93FCCF3869577956795F8
:100F3000B395D9F73EF490958095709561957F4F64
:100F40008F4F9F4F0895E89409C097FB3EF490950A
:100F50008095709561957F4F8F4F9F4F9923A9F092
:100F6000F92F96E9BB279395F69587957795679521
:100F7000B795F111F8CFFAF4BB0F11F460FF1BC065
:100F80006F5F7F4F8F4F9F4F16C0882311F096E9F8
:100F900011C0772321F09EE8872F762F05C06623A6
:100FA00071F096E8862F70E060E02AF09A95660F5F
:100FB000771F881FDAF7880F9695879597F9089518
:100FC000990F0008550FAA0BE0E8FEEF161617065A
:100FD000E807F907C0F012161306E407F50798F0C2
:100FE000621B730B840B950B39F40A2661F0232BDB
:100FF000242B252B21F408950A2609F4A140A69557
:101000008FEF811D811D089597F99F6780E870E03B
:1010100060E008959FEF80EC089500240A9416166E
:10102000170618060906089500240A9412161306D6
:10103000140605060895092E0394000C11F4882364
:1010400052F0BB0F40F4BF2B11F460FF04C06F5F80
:101050007F4F8F4F9F4F089557FD9058440F551F56
:1010600059F05F3F71F04795880F97FB991F61F02A
:101070009F3F79F087950895121613061406551FA1
:10108000F2CF4695F1DF08C0161617061806991F0D
:10109000F1CF86957105610508940895E894BB2702
:1010A00066277727CB0197F908950E94E00708F497
:1010B0008FEF08950E946D080C941B080E940D0884
:1010C00038F00E94140820F0952311F00C940408C5
:1010D0000C940A0811240C944F080E942C0870F3F9
:1010E000959FC1F3950F50E0551F629FF001729FCD
:1010F000BB27F00DB11D639FAA27F00DB11DAA1FDC
:10110000649F6627B00DA11D661F829F2227B00D28
:10111000A11D621F739FB00DA11D621F839FA00DB3
:10112000611D221F749F3327A00D611D231F849F03
:10113000600D211D822F762F6A2F11249F5750405A
:101140009AF0F1F088234AF0EE0FFF1FBB1F661FD5
:10115000771F881F91505040A9F79E3F510580F09E
:101160000C9404080C944F085F3FE4F3983ED4F3CA
:10117000869577956795B795F795E7959F5FC1F742
:10118000FE2B880F911D9695879597F908950E94DB
:10119000E007880B990B089581E090E0F8940C9497
:0611A000D108F894FFCF16
:1011A600000000004D01B600E4009A011501F300AD
:1011B600070174696D655061737365644D696C737D
:1011C600203A20000D0A00617665726167655469F0
:1011D6006D654D696C73203A20006E616E00696E14
:1011E60066006F76660020696E20697465726174A8
:0E11F600696F6E4E756D626572203A200000C2
:00000001FF
