:100000000C94E3000C9414010C9414010C9414014E
:100010000C9414010C9414010C9414010C9414010C
:100020000C9414010C9414010C9414010C941401FC
:100030000C9414010C9414010C9414010C941401EC
:100040000C9414010C9414010C9414010C941401DC
:100050000C9414010C9414010C9414010C941C03C2
:100060000C9414010C9490030C9466030C941401EA
:100070000C9414010C9414010C9414010C941401AC
:100080000C9414010C9414010C9414010C9414019C
:100090000C9414010C9414010C9414010C9414018C
:1000A0000C9414010C9414010C9414010C9414017C
:1000B0000C9414010C9414010C9414010C9414016C
:1000C0000C9414010C9414010C9414010C9414015C
:1000D0000C9414010C9414010C9414010C9414014C
:1000E0000C9414010C94D5040C9466020C94BF017A
:1000F0000C9419020C94E1010C94D3010C94B001FE
:100100000C94820100002200250028002B002E0004
:100110003100340002010000050108010B0100005C
:100120002100240027002A002D00300033000101A7
:100130000000040107010A01050505050705080877
:100140000808020202020A0A080804040404010161
:100150000101010101010303030303030303040776
:1001600007070C0C0C0C0C0C0C0C0202020206060D
:100170000606060606060B0B0B0B0B0B0B0B010200
:1001800010202008081020401020408002010201A9
:100190000804020101020408102040808040201061
:1001A00008040201800402018040201008040201BA
:1001B0000804020101020408102040800102040822
:1001C00010204080D50411241FBECFEFD1E2DEBF46
:1001D000CDBF00E00CBF12E0A0E0B2E0E6E6FAE03E
:1001E00000E00BBF02C007900D92A631B107D9F70E
:1001F00022E0A6E1B2E001C01D92AE3BB207E1F7FA
:1002000010E0C3EED0E000E006C021970109802F86
:10021000FE010E942405C23ED10780E00807A9F72D
:100220000E94C6030C9431050C940000CF93DF9319
:1002300090E0FC01E258FE4F2491FC01E85CFE4F87
:1002400084918823C1F090E0880F991FFC01E25E41
:10025000FE4FC591D491FC01EC5FFE4FA591B49186
:100260009FB7F8948881E22FE0958E2388838C9144
:10027000E823EC939FBFDF91CF910895863308F078
:10028000865390917B00282F2870977F922B909314
:100290007B008770806480937C0080917A0080640A
:1002A00080937A0080917A0086FDFCCF809178005F
:1002B0002091790090E0922B08953FB7F8948091B7
:1002C0001D0290911E02A0911F02B091200226B53E
:1002D000A89B05C02F3F19F00196A11DB11D3FBF7E
:1002E000BA2FA92F982F8827820F911DA11DB11D0C
:1002F000BC01CD0142E0660F771F881F991F4A9508
:10030000D1F70895CF92DF92EF92FF920F931F9350
:10031000CF93DF936C017A018B01C0E0D0E0CE1562
:10032000DF0581F0D8016D918D01D601ED91FC9131
:100330000190F081E02DC6011995892B11F02196CD
:10034000EECF7E01C701DF91CF911F910F91FF90FA
:10035000EF90DF90CF900895089580E090E00895A9
:10036000FC01538D448D252F30E0842F90E0821BBB
:10037000930B541710F0CF96089501970895FC0140
:10038000918D828D981761F0828DDF01A80FB11DCC
:100390005D968C91928D9F5F9F73928F90E00895F0
:1003A0008FEF9FEF0895FC01918D828D981731F0AA
:1003B000828DE80FF11D858D90E008958FEF9FEFFE
:1003C0000895FC01918D228D892F90E0805C9F4FD4
:1003D000821B91098F739927089581E292E00E9410
:1003E000E10121E0892B09F420E0822F0895FC012E
:1003F000848DDF01A80FB11DA35ABF4F2C91848DAE
:1004000090E001968F739927848FA689B7892C93E2
:10041000A089B1898C91837080648C93938D848D35
:10042000981306C00288F389E02D80818F7D808338
:100430000895EF92FF920F931F93CF93DF93EC01F8
:1004400081E0888F9B8D8C8D981305C0E889F98990
:10045000808185FD26C0F62E0B8D10E00F5F1F4FAB
:100460000F731127E02E8C8DE8120CC00FB607FC1D
:10047000FACFE889F989808185FFF5CFCE010E9406
:10048000F701F1CF8B8DFE01E80FF11DE35AFF4F0D
:10049000F0829FB7F8940B8FEA89FB898081806294
:1004A0000AC09FB7F894EE89FF896083E889F989CB
:1004B00080818370806480839FBF81E090E0DF91C2
:1004C000CF911F910F91FF90EF900895CF93DF93FD
:1004D000EC01888D8823C9F0EA89FB89808185FD3C
:1004E00005C0A889B9898C9186FD0FC00FB607FC9D
:1004F000F5CF808185FFF2CFA889B9898C9185FFDE
:10050000EDCFCE010E94F701E7CFDF91CF910895A3
:1005100080E090E0892B21F00E94ED01811125C03F
:1005200080E090E0892B41F080E090E0892B21F081
:100530000E94000081111CC080E090E0892B41F0F6
:1005400080E090E0892B21F00E940000811113C00F
:1005500080E090E0892BA1F080E090E0892B81F091
:100560000E94000081110AC008950E940000D8CFA7
:100570000E940000E1CF0E940000EACF0C9400002E
:1005800008958F929F92AF92BF920F931F93CF9334
:10059000DF93CDB7DEB7A1970FB6F894DEBF0FBEDD
:1005A000CDBF19A2423008F44AE08E010F5D1F4F03
:1005B000842E912CA12CB12CA50194010E9402053E
:1005C000E62FB901CA0101501109EA3014F4E05DC7
:1005D00001C0E95CD801EC93232B242B252B61F778
:1005E0000115110571F0F80101900020E9F731972C
:1005F000AF01401B510BB80181E292E00E948201E1
:1006000002C080E090E0A1960FB6F894DEBF0FBE66
:10061000CDBFDF91CF911F910F91BF90AF909F9071
:100620008F90089542E050E062E172E081E292E052
:100630000C9482010E942C051F920F920FB60F920C
:1006400011242F933F938F939F93AF93BF938091E8
:10065000190290911A02A0911B02B0911C023091D4
:10066000180223E0230F2D3720F40196A11DB11DA0
:1006700005C026E8230F0296A11DB11D2093180284
:100680008093190290931A02A0931B02B0931C024C
:1006900080911D0290911E02A0911F02B091200234
:1006A0000196A11DB11D80931D0290931E02A0937F
:1006B0001F02B0932002BF91AF919F918F913F9104
:1006C0002F910F900FBE0F901F9018951F920F92B1
:1006D0000FB60F9211240BB60F922F933F934F93A7
:1006E0005F936F937F938F939F93AF93BF93EF939A
:1006F000FF9381E292E00E94F701FF91EF91BF9199
:10070000AF919F918F917F916F915F914F913F91A9
:100710002F910F900BBE0F900FBE0F901F9018954A
:100720001F920F920FB60F9211240BB60F922F93B8
:100730008F939F93EF93FF93E0913102F0913202F8
:100740008081E0913702F091380282FD12C09081E1
:1007500080913A028F5F8F7320913B02821751F094
:10076000E0913A02F0E0EF5DFD4F958F80933A0201
:1007700001C08081FF91EF919F918F912F910F90F8
:100780000BBE0F900FBE0F901F901895789484B5F4
:10079000826084BD84B5816084BD85B5826085BD7D
:1007A00085B5816085BD80916E00816080936E000B
:1007B00010928100809181008260809381008091FD
:1007C00081008160809381008091800081608093AE
:1007D00080008091B10084608093B1008091B0006E
:1007E00081608093B000809191008260809391003D
:1007F0008091910081608093910080919000816050
:10080000809390008091A10082608093A1008091EC
:10081000A10081608093A1008091A00081608093FD
:10082000A0008091210182608093210180912101AB
:10083000816080932101809120018160809320015B
:1008400080917A00846080937A0080917A0082603F
:1008500080937A0080917A00816080937A00809101
:100860007A00806880937A001092C100E091310292
:10087000F091320282E08083E0912D02F0912E020D
:100880001082E0912F02F09130028FEC8083109261
:100890003902E0913502F091360286E08083E091E2
:1008A0003302F0913402808180618083E0913302D1
:1008B000F0913402808188608083E0913302F0916E
:1008C0003402808180688083E0913302F0913402A9
:1008D00080818F7D808389E30E9416018DE30E94D1
:1008E00016018FB7F8944091190250911A02609145
:1008F0001B0270911C028FBF0E945D016B017C0185
:1009000088EE882E83E0982EA12CB12C0E945D01E8
:10091000DC01CB018C199D09AE09BF09883E9340CB
:10092000A105B10598F321E0821A9108A108B10848
:1009300088EEC80E83E0D81EE11CF11C81149104DE
:10094000A104B10419F789E30E943E016C01909360
:100950001702809316028DE30E943E010D2C000CBD
:10096000EE08FF08F7FE0EC06DE281E292E00E9401
:10097000190266277727CB016C197D098E099F091B
:100980004AE003C04AE0C701B6010E94C1020E94CA
:1009900012034AE06DE370E080E090E00E94C10243
:1009A0000E9412030E9488029CCFE1E2F2E01382CF
:1009B000128288EE93E0A0E0B0E084839583A68362
:1009C000B78384E092E09183808385EC90E0958703
:1009D000848784EC90E09787868780EC90E0918B09
:1009E000808B81EC90E0938B828B82EC90E0958BF6
:1009F000848B86EC90E0978B868B118E128E138EF3
:100A0000148E0895A1E21A2EAA1BBB1BFD010DC076
:100A1000AA1FBB1FEE1FFF1FA217B307E407F507AE
:100A200020F0A21BB30BE40BF50B661F771F881F8A
:100A3000991F1A9469F760957095809590959B0120
:100A4000AC01BD01CF010895EE0FFF1F881F8BBFC2
:100A50000790F691E02D199481E090E0F8940C94C1
:060A60003105F894FFCF00
:100A66000000000019028201B0016602E101BF0127
:060A7600D3010D0A00008F
:00000001FF
