:100000000C9483000C94B4000C94B4000C94B400D1
:100010000C94B4000C94B4000C94B4000C94B40090
:100020000C94B4000C94B4000C94B4000C94B40080
:100030000C94B4000C94B4000C94B4000C94B40070
:100040000C94B4000C94B4000C94B4000C94B40060
:100050000C94B4000C94B4000C94B4000C944A02B8
:100060000C94B4000C94BE020C9494020C94B40052
:100070000C94B4000C94B4000C94B4000C94B40030
:100080000C94B4000C94B4000C94B4000C94B40020
:100090000C94B4000C94B4000C94B4000C94B40010
:1000A0000C94B4000C94B4000C94B4000C94B40000
:1000B0000C94B4000C94B4000C94B4000C94B400F0
:1000C0000C94B4000C94B4000C94B4000C94B400E0
:1000D0000C94B4000C94B4000C94B4000C94B400D0
:1000E0000C94B4000C94E4000C949E050C94F30062
:1000F0000C9415010C94B6000C949A010C94070111
:100100000C944D019E0511241FBECFEFD1E2DEBF3E
:10011000CDBF00E00CBF12E0A0E0B2E0ECEAF0E1FD
:1001200000E00BBF02C007900D92AE35B107D9F7C2
:1001300023E0AEE5B2E001C01D92A432B207E1F7C0
:1001400010E0C3E8D0E000E006C021970109802F4D
:10015000FE010E940B06C238D10780E00807A9F70C
:100160000E94F4020C9454080C940000CF92DF9289
:10017000EF92FF920F931F93CF93DF936C017A015D
:100180008B01C0E0D0E0CE15DF0581F0D8016D9184
:100190008D01D601ED91FC910190F081E02DC60119
:1001A0001995892B11F02196EECF7E01C701DF91C1
:1001B000CF911F910F91FF90EF90DF90CF90089516
:1001C000089580E090E00895FC01538D448D252F23
:1001D00030E0842F90E0821B930B541710F0CF96E1
:1001E000089501970895FC01918D828D981761F013
:1001F000828DDF01A80FB11D5D968C91928D9F5F5E
:100200009F73928F90E008958FEF9FEF0895FC0108
:10021000918D828D981731F0828DE80FF11D858DBB
:1002200090E008958FEF9FEF0895FC01918D228D4E
:10023000892F90E0805C9F4F821B91098F739927D3
:10024000089587E892E00E94150121E0892B09F4C6
:1002500020E0822F0895FC01848DDF01A80FB11DDD
:10026000A35ABF4F2C91848D90E001968F739927EC
:10027000848FA689B7892C93A089B1898C918370CA
:1002800080648C93938D848D981306C00288F389C3
:10029000E02D80818F7D80830895EF92FF920F93F0
:1002A0001F93CF93DF93EC0181E0888F9B8D8C8D22
:1002B000981305C0E889F989808185FD26C0F62E4E
:1002C0000B8D10E00F5F1F4F0F731127E02E8C8DE9
:1002D000E8120CC00FB607FCFACFE889F9898081D3
:1002E00085FFF5CFCE010E942B01F1CF8B8DFE0152
:1002F000E80FF11DE35AFF4FF0829FB7F8940B8F80
:10030000EA89FB89808180620AC09FB7F894EE89F0
:10031000FF896083E889F9898081837080648083A4
:100320009FBF81E090E0DF91CF911F910F91FF90EF
:10033000EF900895CF93DF93EC01888D8823C9F067
:10034000EA89FB89808185FD05C0A889B9898C91DE
:1003500086FD0FC00FB607FCF5CF808185FFF2CF79
:10036000A889B9898C9185FFEDCFCE010E942B0120
:10037000E7CFDF91CF91089580E090E0892B21F0C5
:100380000E942101811125C080E090E0892B41F07D
:1003900080E090E0892B21F00E94000081111CC0B8
:1003A00080E090E0892B41F080E090E0892B21F003
:1003B0000E940000811113C080E090E0892BA1F021
:1003C00080E090E0892B81F00E94000081110AC03A
:1003D00008950E940000D8CF0E940000E1CF0E9443
:1003E0000000EACF0C9400000895009769F0FC012A
:1003F00001900020E9F73197AF01481B590BBC0170
:1004000087E892E00C94B60080E090E008958F9227
:100410009F92AF92BF920F931F93CF93DF93CDB76D
:10042000DEB7A1970FB6F894DEBF0FBECDBF19A2FD
:10043000423008F44AE08E010F5D1F4F842E912C4C
:10044000A12CB12CA50194010E94CB05E62FB90186
:10045000CA0101501109EA3014F4E05D01C0E95C01
:10046000D801EC93232B242B252B61F7C8010E9484
:10047000F501A1960FB6F894DEBF0FBECDBFDF9198
:10048000CF911F910F91BF90AF909F908F90089543
:100490000E944F081F920F920FB60F9211242F93B4
:1004A0003F938F939F93AF93BF93809183029091DB
:1004B0008402A0918502B09186023091820223E0ED
:1004C000230F2D3720F40196A11DB11D05C026E88C
:1004D000230F0296A11DB11D2093820280938302F7
:1004E00090938402A0938502B093860280917E024D
:1004F00090917F02A0918002B09181020196A11D8E
:10050000B11D80937E0290937F02A0938002B093EE
:100510008102BF91AF919F918F913F912F910F9049
:100520000FBE0F901F9018951F920F920FB60F924B
:1005300011240BB60F922F933F934F935F936F93BA
:100540007F938F939F93AF93BF93EF93FF9387E82E
:1005500092E00E942B01FF91EF91BF91AF919F918B
:100560008F917F916F915F914F913F912F910F905C
:100570000BBE0F900FBE0F901F9018951F920F92F9
:100580000FB60F9211240BB60F922F938F939F9358
:10059000EF93FF93E0919702F09198028081E091B0
:1005A0009D02F0919E0282FD12C090818091A00276
:1005B0008F5F8F732091A102821751F0E091A0020A
:1005C000F0E0E957FD4F958F8093A00201C0808134
:1005D000FF91EF919F918F912F910F900BBE0F90F4
:1005E0000FBE0F901F901895789484B5826084BDDB
:1005F00084B5816084BD85B5826085BD85B5816027
:1006000085BD80916E00816080936E0010928100A4
:10061000809181008260809381008091810081605F
:100620008093810080918000816080938000809120
:10063000B10084608093B1008091B00081608093AC
:10064000B000809191008260809391008091910030
:1006500081608093910080919000816080939000F0
:100660008091A10082608093A1008091A1008160AF
:100670008093A1008091A00081608093A000809170
:10068000210182608093210180912101816080930A
:1006900021018091200181608093200180917A0066
:1006A000846080937A0080917A00826080937A00DF
:1006B00080917A00816080937A0080917A008068CE
:1006C00080937A001092C100E0919702F091980215
:1006D00082E08083E0919302F09194021082E09195
:1006E0009502F09196028FEC808310929F02E09128
:1006F0009B02F0919C0286E08083E0919902F09148
:100700009A02808180618083E0919902F0919A023F
:10071000808188608083E0919902F0919A028081C3
:1007200080688083E0919902F0919A0280818F7DA8
:100730008083109261021092600210926302109204
:100740006202109265021092640210926702109287
:10075000660210925F0210925E021092690210927D
:10076000680210926B0210926A0210926D0210924F
:100770006C022FB7F8948091830290918402A0912B
:100780008502B09186022FBF80937A0290937B02FC
:10079000A0937C02B0937D02209176023091770283
:1007A000E0915E02F0915F02C0916002D09161021F
:1007B00080906202909063024091640250916502C1
:1007C000E0906602F0906702A0906802B090690223
:1007D00000916A0210916B0230906C0220906D02C1
:1007E000C0907802D09079028FEFC81AD80A81E1C0
:1007F000C81687E2D80609F473C02E010D2E000C2E
:100800006608770882E0440C551C661C771C8A95A4
:10081000D1F720E030E6D4010E940406DC01CB01D0
:100820002CE0B595A795979587952A95D1F7480E11
:10083000591ECA01052E000CAA0BBB0B32E0880F13
:10084000991FAA1FBB1F3A95D1F7B201680F791FF4
:10085000E60EF71E9F01AAECB7E90E94ED05DC0148
:10086000CB016DE0B595A795979587956A95D1F7DA
:10087000E81AF90A2AE830E4D5010E940406DC01EE
:10088000CB017CE0B595A795979587957A95D1F79B
:10089000E81AF90A9801A0E2B8EB0E94ED05DC0124
:1008A000CB012DE0B595A795979587952A95D1F71A
:1008B0003701681A790A28E339E7A32DB22D0E947F
:1008C000040622E030E0302E212E7A0185015F01FE
:1008D000F301E81BF90BA4014E01C0E0D0E084CF86
:1008E0003093770220937602D0936102C093600226
:1008F0008092620290926302509365024093640278
:10090000F0935F02E0935E02A0926802B0926902E7
:1009100000936A0210936B02F0926702E092660203
:1009200030926C0220926D0210927902109278023D
:100930002FB7F8948091830290918402A091850250
:10094000B09186022FBF40917A0250917B02609154
:100950007C0270917D02841B950BA60BB70B8093D4
:10096000720290937302A0937402B093750282E1B5
:1009700092E00E94F5016091720270917302809181
:100980007402909175024AE00E94070284E292E0AC
:100990000E94F5016091720270917302809174025D
:1009A000909175020E94260720E030E44CE156E465
:1009B0000E94850660936E0270936F0280937002AE
:1009C0009093710287E292E00E94F501C0906E025E
:1009D000D0906F02E0907002F0907102A701960132
:1009E000C701B6010E944A08882319F08AE392E001
:1009F0001AC046015701E894B7F82FEF3FEF4FE7D1
:100A00005FE7C501B4010E944A0881110FC02FEFB2
:100A10003FEF4FE75FE7C501B4010E94800618165B
:100A20002CF48EE392E00E94F50176C02FEF3FEFA9
:100A30004FE75FE4C701B6010E94D80718161CF4FF
:100A400082E492E0F0CF2FEF3FEF4FE75FECC7017A
:100A5000B6010E94800687FDF3CF20E030E0A901B7
:100A6000C701B6010E94800687FF09C06DE287E8D2
:100A700092E00E944D01F7FAF094F7F8F0942AE022
:100A800037ED43EA5BE3C701B6010E9414064B0150
:100A90005C010E94F7066B017C010E9426079B0106
:100AA000AC01C501B4010E9413064B015C014AE090
:100AB000C701B6010E9407026EE287E892E00E9439
:100AC0004D0120E030E040E251E4C501B4010E9454
:100AD000DD074B015C010E94F7066B01E12CF12C54
:100AE0004AE0C701B6010E940702C701B6010E9491
:100AF00026079B01AC01C501B4010E94130620E04A
:100B000030E040E251E40E94DD070E94F70680E0F9
:100B100090E04AE00E94070286E492E00E94F5011C
:100B20004AE060E177E280E090E00E94070284E220
:100B300092E00E94F5010E94BC011BCEE7E8F2E0C2
:100B40001382128288EE93E0A0E0B0E08483958364
:100B5000A683B78384E092E09183808385EC90E064
:100B60009587848784EC90E09787868780EC90E077
:100B7000918B808B81EC90E0938B828B82EC90E068
:100B8000958B848B86EC90E0978B868B118E128EE2
:100B9000138E148E0895A1E21A2EAA1BBB1BFD0111
:100BA0000DC0AA1FBB1FEE1FFF1FA217B307E4074C
:100BB000F50720F0A21BB30BE40BF50B661F771FA4
:100BC000881F991F1A9469F7609570958095909584
:100BD0009B01AC01BD01CF0108950E94F5053323AF
:100BE00012F48A1B9B0B0C940606A29FB001B39FC4
:100BF000C001A39F700D811D1124911DB29F700D26
:100C0000811D1124911D08950E94F505B7FF0895D7
:100C1000821B930B0895EE0FFF1F881F8BBF079059
:100C2000F691E02D19945058BB27AA270E942B0655
:100C30000C949E070E94900738F00E94970720F0BE
:100C400039F49F3F19F426F40C948D070EF4E095C7
:100C5000E7FB0C948707E92F0E94AF0758F3BA17F8
:100C6000620773078407950720F079F4A6F50C94C2
:100C7000D1070EF4E0950B2EBA2FA02D0B01B90170
:100C800090010C01CA01A0011124FF27591B99F002
:100C9000593F50F4503E68F11A16F040A22F232F0E
:100CA000342F4427585FF3CF469537952795A7955E
:100CB000F0405395C9F77EF41F16BA0B620B730B05
:100CC000840BBAF09150A1F0FF0FBB1F661F771F76
:100CD000881FC2F70EC0BA0F621F731F841F48F42B
:100CE000879577956795B795F7959E3F08F0B0CFB4
:100CF0009395880F08F09927EE0F9795879508959B
:100D00000E94630708F481E008950E9499060C94FC
:100D10009E070E94970758F00E94900740F029F420
:100D20005F3F29F00C94870751110C94D2070C9463
:100D30008D070E94AF0768F39923B1F3552391F310
:100D4000951B550BBB27AA2762177307840738F03A
:100D50009F5F5F4F220F331F441FAA1FA9F335D097
:100D60000E2E3AF0E0E832D091505040E695001C4B
:100D7000CAF72BD0FE2F29D0660F771F881FBB1F05
:100D8000261737074807AB07B0E809F0BB0B802DE3
:100D9000BF01FF2793585F4F3AF09E3F510578F00F
:100DA0000C9487070C94D2075F3FE4F3983ED4F38A
:100DB000869577956795B795F7959F5FC9F7880FE3
:100DC000911D9695879597F90895E1E0660F771F35
:100DD000881FBB1F621773078407BA0720F0621BC6
:100DE000730B840BBA0BEE1F88F7E09508950E94F1
:100DF000B70788F09F5798F0B92F9927B751B0F0EF
:100E0000E1F0660F771F881F991F1AF0BA95C9F78E
:100E100014C0B13091F00E94D107B1E008950C9454
:100E2000D107672F782F8827B85F39F0B93FCCF307
:100E3000869577956795B395D9F73EF4909580950B
:100E4000709561957F4F8F4F9F4F0895E89409C02B
:100E500097FB3EF490958095709561957F4F8F4FED
:100E60009F4F9923A9F0F92F96E9BB279395F69503
:100E7000879577956795B795F111F8CFFAF4BB0F81
:100E800011F460FF1BC06F5F7F4F8F4F9F4F16C0E5
:100E9000882311F096E911C0772321F09EE8872F6F
:100EA000762F05C0662371F096E8862F70E060E02B
:100EB0002AF09A95660F771F881FDAF7880F9695A4
:100EC000879597F90895990F0008550FAA0BE0E848
:100ED000FEEF16161706E807F907C0F012161306FC
:100EE000E407F50798F0621B730B840B950B39F43C
:100EF0000A2661F0232B242B252B21F408950A26A2
:100F000009F4A140A6958FEF811D811D089597F9E1
:100F10009F6780E870E060E008959FEF80EC08959F
:100F200000240A94161617061806090608950024C8
:100F30000A9412161306140605060895092E039442
:100F4000000C11F4882352F0BB0F40F4BF2B11F4B6
:100F500060FF04C06F5F7F4F8F4F9F4F089557FD15
:100F60009058440F551F59F05F3F71F04795880F17
:100F700097FB991F61F09F3F79F0879508951216AE
:100F800013061406551FF2CF4695F1DF08C016165A
:100F900017061806991FF1CF86957105610508940B
:100FA0000895E894BB2766277727CB0197F9089522
:100FB0000E94630708F48FEF08950E94F0070C94D5
:100FC0009E070E94900738F00E94970720F0952313
:100FD00011F00C9487070C948D0711240C94D20700
:100FE0000E94AF0770F3959FC1F3950F50E0551F16
:100FF000629FF001729FBB27F00DB11D639FAA276E
:10100000F00DB11DAA1F649F6627B00DA11D661FBC
:10101000829F2227B00DA11D621F739FB00DA11DDD
:10102000621F839FA00D611D221F749F3327A00D97
:10103000611D231F849F600D211D822F762F6A2F33
:1010400011249F5750409AF0F1F088234AF0EE0F98
:10105000FF1FBB1F661F771F881F91505040A9F7C5
:101060009E3F510580F00C9487070C94D2075F3F98
:10107000E4F3983ED4F3869577956795B795F79501
:10108000E7959F5FC1F7FE2B880F911D9695879579
:1010900097F908950E946307880B990B089581E0E2
:0C10A00090E0F8940C945408F894FFCFF2
:1010AC00000000004D01B600E4009A011501F300A8
:1010BC00070174696D655061737365644D696C7378
:1010CC00203A20000D0A00617665726167655469EB
:1010DC006D654D696C73203A20006E616E00696E0F
:1010EC0066006F76660020696E20697465726174A3
:0E10FC00696F6E4E756D626572203A200000BD
:00000001FF
